{
  "transactions": [
    {
      "hash": "0x5a4b93c8d45470c9821ca8670a16554383fa3429e4134dca2b665422fc9c027a",
      "transactionType": "CALL",
      "contractName": null,
      "contractAddress": "0x779877a7b0d9e8603169ddbd7836e478b4624789",
      "function": "transferAndCall(address,uint256,bytes)",
      "arguments": [
        "0x9DdfaCa8183c41ad55329BdeeD9F6A8d53168B1B",
        "3000000000000000000",
        "0x1e8cb26eeeb015193e840c23ea7dda24c037f672d741cee42eb8b0d7360b364f"
      ],
      "transaction": {
        "from": "0x61b7376f875c43344a8d82fa55783cca4d0e8caf",
        "to": "0x779877a7b0d9e8603169ddbd7836e478b4624789",
        "gas": "0x1c1ff",
        "value": "0x0",
        "input": "0x4000aea00000000000000000000000009ddfaca8183c41ad55329bdeed9f6a8d53168b1b00000000000000000000000000000000000000000000000029a2241af62c0000000000000000000000000000000000000000000000000000000000000000006000000000000000000000000000000000000000000000000000000000000000201e8cb26eeeb015193e840c23ea7dda24c037f672d741cee42eb8b0d7360b364f",
        "nonce": "0x4a",
        "chainId": "0xaa36a7"
      },
      "additionalContracts": [],
      "isFixedGasLimit": false
    }
  ],
  "receipts": [
    {
      "status": "0x1",
      "cumulativeGasUsed": "0x74e766",
      "logs": [
        {
          "address": "0x779877a7b0d9e8603169ddbd7836e478b4624789",
          "topics": [
            "0xddf252ad1be2c89b69c2b068fc378daa952ba7f163c4a11628f55a4df523b3ef",
            "0x00000000000000000000000061b7376f875c43344a8d82fa55783cca4d0e8caf",
            "0x0000000000000000000000009ddfaca8183c41ad55329bdeed9f6a8d53168b1b"
          ],
          "data": "0x00000000000000000000000000000000000000000000000029a2241af62c0000",
          "blockHash": "0x3820b4872e5b6b264583063294dde169fd2f157e0d08e4d2b5a4dcc4e601618e",
          "blockNumber": "0x9cc194",
          "blockTimestamp": "0x69933600",
          "transactionHash": "0x5a4b93c8d45470c9821ca8670a16554383fa3429e4134dca2b665422fc9c027a",
          "transactionIndex": "0x4c",
          "logIndex": "0x9e",
          "removed": false
        },
        {
          "address": "0x779877a7b0d9e8603169ddbd7836e478b4624789",
          "topics": [
            "0xe19260aff97b920c7df27010903aeb9c8d2be5d310a2c67824cf3f15396e4c16",
            "0x00000000000000000000000061b7376f875c43344a8d82fa55783cca4d0e8caf",
            "0x0000000000000000000000009ddfaca8183c41ad55329bdeed9f6a8d53168b1b"
          ],
          "data": "0x00000000000000000000000000000000000000000000000029a2241af62c0000000000000000000000000000000000000000000000000000000000000000004000000000000000000000000000000000000000000000000000000000000000201e8cb26eeeb015193e840c23ea7dda24c037f672d741cee42eb8b0d7360b364f",
          "blockHash": "0x3820b4872e5b6b264583063294dde169fd2f157e0d08e4d2b5a4dcc4e601618e",
          "blockNumber": "0x9cc194",
          "blockTimestamp": "0x69933600",
          "transactionHash": "0x5a4b93c8d45470c9821ca8670a16554383fa3429e4134dca2b665422fc9c027a",
          "transactionIndex": "0x4c",
          "logIndex": "0x9f",
          "removed": false
        },
        {
          "address": "0x9ddfaca8183c41ad55329bdeed9f6a8d53168b1b",
          "topics": [
            "0x1ced9348ff549fceab2ac57cd3a9de38edaaab274b725ee82c23e8fc8c4eec7a",
            "0x1e8cb26eeeb015193e840c23ea7dda24c037f672d741cee42eb8b0d7360b364f"
          ],
          "data": "0x000000000000000000000000000000000000000000000000000000000000000000000000000000000000000000000000000000000000000029a2241af62c0000",
          "blockHash": "0x3820b4872e5b6b264583063294dde169fd2f157e0d08e4d2b5a4dcc4e601618e",
          "blockNumber": "0x9cc194",
          "blockTimestamp": "0x69933600",
          "transactionHash": "0x5a4b93c8d45470c9821ca8670a16554383fa3429e4134dca2b665422fc9c027a",
          "transactionIndex": "0x4c",
          "logIndex": "0xa0",
          "removed": false
        }
      ],
      "logsBloom": "0x00000004000000000000000000000000000000000020000000000000020000000000000000000000000000000080000000000000000000000000000000000000000000000000000004000008000000000000000000008000000020000020000008000000000000000000000000000000000000000000000000000010002040000000000000000000000000050000800000000020000000000000000000000000000000000000000000000000010000000000000000000000000004000000000000000002000000000000000000000000000000000000000100000000000000000010000200000000800000000000000000000000000000000000000000000000",
      "type": "0x2",
      "transactionHash": "0x5a4b93c8d45470c9821ca8670a16554383fa3429e4134dca2b665422fc9c027a",
      "transactionIndex": "0x4c",
      "blockHash": "0x3820b4872e5b6b264583063294dde169fd2f157e0d08e4d2b5a4dcc4e601618e",
      "blockNumber": "0x9cc194",
      "gasUsed": "0x133b1",
      "effectiveGasPrice": "0xdf57939f",
      "from": "0x61b7376f875c43344a8d82fa55783cca4d0e8caf",
      "to": "0x779877a7b0d9e8603169ddbd7836e478b4624789",
      "contractAddress": null
    }
  ],
  "libraries": [],
  "pending": [],
  "returns": {},
  "timestamp": 1771255296650,
  "chain": 11155111,
  "commit": "605feaa"
}